:020000040800F2
:10000000A0040020C9000008D51500080B10000846
:1000100000000000000000000000000000000000E0
:100020000000000000000000000000002116000891
:1000300000000000000000001D1600082316000844
:10004000DB00000800000000DB000008DB00000807
:100050001F160008DB000008DB0000087D01000817
:1000600000000000DB000008DB000008DB000008E7
:10007000DB0000085917000869170008000000009D
:10008000DB000008DB00000800000000DB000008C7
:10009000DB000008DB000008DB000008DB000008D4
:1000A000DB000008DB000008DB000008DB000008C4
:1000B000DB0000080348854600F03CF80048004794
:1000C0004D1B0008A0040020044880470448004756
:1000D000FEE7FEE7FEE7FEE7FEE7FEE7FD160008A7
:1000E000B500000830B50B4601460020202201244F
:1000F00009E00D46D5409D4205D31D469540491B5C
:100100002546954040191546521E002DF1DC30BDA4
:10011000D2B201E00270401C491EFBD2704700229F
:10012000F6E710B513460A4604461946FFF7F0FFF6
:10013000204610BD064C0125064E05E0E36807CCBD
:100140002B430C3C98471034B442F7D3FFF7B6FF6B
:10015000BC1D0008DC1D000810B5064CA088002856
:1001600007D101228021044800F0F5F85520C00095
:10017000608010BD300000200004004810B5402011
:1001800000F034F80120800200F030F810BD704714
:1001900031B500F0E7F8009C0546601C00D0641CF7
:1001A00000F0E0F8401BA042FAD338BD70B5012141
:1001B0008902884214D10B4C2088401C80B22080D8
:1001C00003280DD900F0CEF805462069854204D0F9
:1001D000291A0548FFF786FF60610020256120800D
:1001E00070BD000038000020C0D4010010B50449E3
:1001F0004A69024202D04861FFF7D8FF10BD0000F3
:1002000000040140F8B500238DE001249C40A44681
:1002100022407DD04C68022C01D0122C0CD1DC087D
:10022000A40027183C6A5D07ED0E0F26AE40B443CC
:100230000E69AE4026433E6205685E000324B4406A
:100240000F79A543BF07BF0FB7402F4307604D6825
:10025000012D05D0022D03D0112D01D0122D0ED16C
:100260008568CF68A543B7402F43876047686546D8
:10027000AF430D79ED06ED0F9D403D434560C568E8
:10028000A5438C68B4402C43C4604C68E40049D555
:10029000284CA56901263543A561A4699D08344011
:1002A0000094254CAD002F19BC689D072E0F0F251B
:1002B000B540AC430925ED06A84201D100250FE069
:1002C0001E4DA84201D101250AE01D4DA84201D1D1
:1002D000022505E01B4DA84201D1032500E00525BC
:1002E000B5402543BD60184C25684E689543F6031C
:1002F00000D51543256065684E689543B60300D563
:1003000015436560A5684E689543F60202D500E086
:1003100008E01543A560E5684E689543B60200D530
:100320001543E5605B1C0A681446DC4000D06CE7AE
:10033000F8BD000000100240000001400004004829
:1003400000080048000C0048000401400069084013
:1003500000D001207047002A01D08161704781627E
:1003600070470000014800687047000054000020FA
:1003700002480168491C01607047000054000020D9
:1003800010B506480168102211430160002000F0FA
:1003900007F800F017F8002010BD00000020024010
:1003A00010B5044600F0CEF87D21C900FFF79AFE93
:1003B00000F0B4FA00222146501E00F029F8002077
:1003C00010BD000008B50C4881690122114381610C
:1003D000816911400091C26901040A43C261C06988
:1003E0000022084000901146042000F011F804207B
:1003F00000F004F808BD000000100240C106C90E5C
:1004000001208840014908607047000000E100E0D9
:1004100010B501F0E1F810BDF8B5054644480E46A8
:100420000068C007C00FB0420AD2414801684908BD
:100430004900314301600068C007C00FB0425CD181
:1004400028783C4C800705D56068F0218843A9686E
:10045000084360602878C0073FD06868012813D03F
:100460002168022813D08907002946DA61688908C3
:10047000890001436160FFF775FF6968074601293C
:100480000DD0022917D024E021688903ECE7890107
:10049000EAE7FFF767FFC11B2748814217D860686A
:1004A0000007800F0128F4D117E0FFF75BFFC11BA5
:1004B000214881420BD860680007800F0228F4D1E0
:1004C0000BE0FFF74FFFC11B1B48814201D90320FE
:1004D000F8BD60680007800FF3D115480168C907AF
:1004E000C90FB1420BD90168490849003143016085
:1004F0000068C007C00FB04201D00120F8BD2878C5
:10050000400706D56068072109028843E968084367
:10051000606000F01DF86168084A0906090F515C27
:10052000C840074908600020FFF73AFF0020F8BDE7
:10053000002002400010024088130000AA1D00089D
:100540005800002001480068704700005800002053
:1005500010B512A30FCB88B06C460FC413A30FCBFA
:100560000FC416494A680C20134603401448042B54
:100570000FD0082B0DD193021B0F6C46E45CC96AA7
:1005800004AB0907090F595CD20304D5FFF7AAFD94
:10059000604308B010BD0B486043FAE7020304054E
:1005A000060708090A0B0C0D0E0F101001020304B8
:1005B00005060708090A0B0C0D0E0F10001002406B
:1005C00000127A0000093D00FEB504460078D04DC7
:1005D000C00747D068680007800F012807D0686807
:1005E0000007800F022809D16868C00306D5286873
:1005F000800337D5606800287ED033E00120626830
:100600000004012A11D08100002A01D0052A10D04F
:100610002A6882432A602868884328606068002826
:1006200014D0FFF79FFE06460CE0296801432960BD
:10063000F4E72A680A432A60F7E7FFF793FE801B76
:1006400064286FD828688003F7D50BE0FFF78AFE8F
:10065000064604E0FFF786FE801B6428F1D8286870
:100660008003F7D420780126800700283BDA6868E9
:100670000007800F07D068680007800F022809D1A3
:100680006868C00306D42868800715D5E06801288B
:1006900032D111E0E0680028286815D03043286086
:1006A000FFF760FE074604E0FFF75CFEC01B022870
:1006B000C7D828688007F7D52868F82188432169BA
:1006C000C900084328600EE0400840002860FFF79A
:1006D00049FE074604E0FFF745FEC01B0228B0D8DC
:1006E00028688007F7D42078000724D5E06900281F
:1006F000686A10D0304300E008E16862FFF732FE1C
:10070000074604E0FFF72EFEC01B022899D8686A4E
:100710008007F7D50FE0400840006862FFF722FE2F
:10072000074605E09DE0FFF71DFEC01B022888D8A4
:10073000686A8007F7D4207804274007002860DA29
:1007400000200190E869C00008D4E969B8060143B7
:10075000E961E96901400120009101906D4801685B
:10076000C90511D40168821511430160FFF7FAFD34
:10077000009005E0FFF7F6FD0099401A642870D854
:1007800064480068C005F5D5A06801280AD0002893
:1007900001D0052810D0286A400840002862286A45
:1007A000B84301E0286A30432862A068002812D0CC
:1007B000FFF7D8FD00900AE0286A38432862F1E785
:1007C000FFF7D0FD0099411A5348814249D8286A61
:1007D0008007F5D50DE0FFF7C5FD009006E0FFF7B7
:1007E000C1FD0099411A4C4881423AD8286A8007D5
:1007F000F5D40198002804D0E9690120000781435D
:10080000E9612078C00635D5606901280CD0401D0B
:10081000686B23D038436863686B400840006863A6
:10082000FFF7A0FD064622E0686B38436863686BFB
:1008300030436863FFF796FD064604E0FFF792FD3C
:10084000801B02285BD8686B8007F7D5686BF8219E
:100850008843A169C900084368630BE0B843686333
:10086000F4E74CE0FFF77EFD801B022847D8686B59
:100870008007F7D4206A002846D069680907890FE5
:10088000022943D0012636060228286805D0B04345
:100890002860FFF767FD044633E0B0432860FFF7A8
:1008A00061FD074604E0FFF75DFDC01B022826D866
:1008B00028688001F7D4E86AE16A0009000108436A
:1008C000E862616AA06A084369683D2212049143A4
:1008D00008436860286830432860FFF743FD0446FA
:1008E00004E0FFF73FFD001B022808D828688001BC
:1008F000F7D509E0FFF736FD001B022801D90320D8
:10090000FEBD28688001F5D40020FEBD0120FEBD9B
:10091000001002400070004088130000094910B523
:10092000401E884201D9012010BD074C606103219F
:10093000081F00F051FE0020A06107202061002068
:1009400010BD0000FFFFFF0000E000E070477047AF
:1009500070B5034620331A7F012A27D001241C7763
:1009600002225A770326CA683602B2438E680025EF
:100970003243A602B2434E6800683243E602B243F5
:100980000E6832432603B2430E6932436603B24314
:100990004E6989693243A603B2430A43E603B24370
:1009A0000A4342645C771D77002070BD022070BD51
:1009B00070B502462032137F012B1BD00123137721
:1009C00002245477046865687026B543656004683E
:1009D00065680E68354365600468A5688026B54380
:1009E000A5600068846849680C43846053770020E0
:1009F000107770BD022070BD70B5040005D025468B
:100A00002035687F002802D006E0012070BD00205C
:100A10002877204600F00AF802206877211D206818
:100A200000F0AAFE01206877002070BD08B50068BC
:100A30000D49884217D10D488269C1140A43826169
:100A4000806900220840009011460D20FFF7E0FC6D
:100A50000D20FFF7D3FC002211460E20FFF7D8FC33
:100A60000E20FFF7CBFC08BD002C01400010024017
:100A70000268D36801210B43D360006802680A430F
:100A8000026000207047F8B5054604462035287FEF
:100A9000012817D001272F770220687722689068F5
:100AA0007726FF23B0431B029843906008685028C4
:100AB00037D00EDC202857D006DC00284ED0102876
:100AC00040D14EE00220F8BD302850D0402839D126
:100AD0003CE060282DD0702817D001221203801A24
:100AE0000ED090422ED1CB684A688968206800F009
:100AF00092FE20688168012292031143816021E007
:100B000020688168C908C900F8E7CB684A68896825
:100B1000206800F080FE21688868B0433043886018
:100B200010E0CA684968206800F084FF50212068FE
:100B300006E0CA684968206800F08DFF60212068DF
:100B400000F074FE6F7700202877F8BDCA68496806
:100B5000206800F06FFF40212068F1E70021206845
:100B6000EEE710212068EBE720212068E8E730213C
:100B70002068E5E7704770B5044600680169002504
:100B8000C9438907002915DBC168C943890711D406
:100B9000E91E0161012020772068806980072046D6
:100BA00002D0FFF7E7FF04E000F0BEF8204600F0B7
:100BB0003FF9257720680169C943490717D4C168FF
:100BC000C943490713D40421C94301610220207796
:100BD000206880698005800F204602D0FFF7CAFF99
:100BE00004E000F0A1F8204600F022F92577206803
:100BF0000169C943090716D4C168C943090712D45A
:100C00000821C9430161042020772068C06980075A
:100C1000204602D0FFF7AEFF04E000F085F8204642
:100C200000F006F9257720680169C943C90617D481
:100C3000C168C943C90613D41021C9430161082002
:100C400020772068C0698005800F204602D0FFF71A
:100C500091FF04E000F068F8204600F0E9F82577FD
:100C600020680169C943C90708D1C168C943C907D8
:100C700004D1891E0161204600F03EF92068016917
:100C8000C943090609D4C168C943090605D48021AE
:100C9000C94301612046FFF759FE20680169C94335
:100CA000490609D4C168C943490605D44021C9434E
:100CB0000161204600F0A8F920680169C94389064E
:100CC00009D4C168C943890605D42021C9430161FB
:100CD0002046FFF73CFE70BD10B586B004461421D7
:100CE0006846FFF71CFA0E492068884215D10D4866
:100CF0004269012149040A43426140690840059064
:100D0000481200900020022102900390019104916A
:100D100009206946C006FFF775FA06B010BD00004D
:100D2000002C0140001002407047F8B5064604460A
:100D30002036307F0D4601280DD00120307702206B
:100D400070770427002A08D0042A16D0082A2AD04F
:100D50000C2A4DD137E00220F8BD206800F06EFD6E
:100D60002068816908221143816120688169B94343
:100D70008161206881692A6912E0206800F0A2FD83
:100D8000206882690121C9020A4382612068816961
:100D90000122920291438161206881692A691202CD
:100DA0001143816124E0206800F0CCFD2068C26915
:100DB00008210A43C2612068C169B943C161206842
:100DC000C1692A6912E0206800F0FEFD2068C1694F
:100DD0000122D2021143C1612068C2690121890246
:100DE0008A43C2612068C1692A6912021143C16144
:100DF0000120707700203077F8BD70B5040005D071
:100E000025462035687F002802D006E0012070BD0D
:100E100000202877204600F00AF802206877211D7C
:100E2000206800F0A9FC01206877002070BD7047A1
:100E30007047000010B504460068012200F0E0FC95
:100E40000C482168814208D00B48814205D00B48EC
:100E5000814202D00A48814204D1486C0122D20367
:100E6000104348642068016801221143016000209A
:100E700010BD0000002C0140004001400044014032
:100E80000048014030B504460068002200F0B8FC7C
:100E9000154A144821689310814208D013488142B2
:100EA00005D01348814202D0124881420AD1086A13
:100EB000104207D1086A184204D1486C0125ED039D
:100EC000A84348642068016A114206D1016A1942A8
:100ED00003D101684908490001600120203460778E
:100EE000002030BD002C01401111000000400140E5
:100EF0000044014000480140F8B50068324988428A
:100F000061D1324CA069401CA061314801880029A0
:100F100001D0491E01802F490888002801D0401EB9
:100F200008802D480188002904D0491E0904090CB5
:100F3000018004D1002280212848FFF70CFA2849BB
:100F4000A06988423FD9A088401C81B20020A180BE
:100F500001290DD9234B24491A88032A02D10A8872
:100F6000521E0A800988002901D106211980A0801B
:100F70001E490978042903D11D490A78D2430A7011
:100F80001C4E3588002D1DD01B4F1C493B881C4A28
:100F9000002B06D05B1E3B80012D06D0022D08D011
:100FA0000AE008701070308006E00A78D2430A70B8
:100FB00002E01178C943117012490A88002A01D051
:100FC000521E0A80A061F8BD002C014038000020AC
:100FD00028000020340000203200002000040048D7
:100FE000881300001E0000200C00002030000020AC
:100FF00031000020220000202400002006000020F4
:1010000007000020260000207047FEE7F8B5012108
:10101000544800F0C1F8544D544C01281FD1608948
:10102000534A401C80B2608100211170514A1170F6
:101030000A22A281022801D9012060812078401C67
:10104000C0B22070032808D928784B4E04280FD04E
:10105000042028700120307021704848208202212D
:10106000404800F099F8464E032701280AD032E0A4
:101070000520444A28701788434B9F4200D91380AB
:101080003170E9E76089012802D0022814D01FE0FE
:101090002878042802D0052802D003E03B4800E06D
:1010A00039486082374801880A3189B20180628AF2
:1010B00091420DD902800BE0354800780028308835
:1010C00010D03C30308081B23248814200D930802B
:1010D0000A20A081E7810421224800F05DF8012860
:1010E00002D023E0401CEDE76089012802D00228ED
:1010F0000AD018E0234801880A3989B20180C8293A
:1011000011D2C82101800EE02148007800283088E3
:1011100005D03C3830800004000C02D003E0401EB3
:10112000F8E7012030800A20A081E7810D4E4021A0
:10113000304600F031F8012803D12878042800D186
:10114000E7800821304600F027F8012806D1E08822
:10115000032804D02878052800D1E780F8BD0620B0
:10116000E080F8BD00040048300000201800002096
:101170000600002007000020310000208813000036
:101180000C0000200A000020DC050000B80B000065
:101190000000002034170000F8B50E460746FFF7A0
:1011A000D5F8244C002807D0234D02212846FFF70C
:1011B000CDF8012829D03AE0FEF7CEFF1F49C8201C
:1011C0000880A088002806D0FFF7CCF805466069A3
:1011D000002803D003E00120A08014E0656160696D
:1011E0002189281A884222D331463846FFF7AEF8C3
:1011F00000281CD16088401C80B26080032801D97F
:101200000820208165610120F8BD04212846FFF7F0
:101210009DF801280BD101212846FFF797F80021FE
:10122000012800D12170FF206180913020810220AF
:10123000F8BD000018000020000400483400002021
:10124000F8B56D4C002665890A2D03D26670A6702C
:10125000E6702BE0642D07D26670A6700A2128463E
:10126000FEF740FFE07021E07D21C9008D4206D2EB
:10127000667064212846FEF735FFA0700EE05F48D7
:10128000854213D22846FEF72DFF60706421284660
:10129000FEF728FF0A21FEF725FFA1700A21284644
:1012A000FEF720FF0A21FEF71DFFE170A5893C2D06
:1012B00024D226700A212846FEF714FF207161719E
:1012C0000A2D00D226714C4DA0794D4F0E350028C5
:1012D00004D04C4938880988084320D0607801221E
:1012E000295C002000F064FCA0780122295C022027
:1012F00000F05EFCE0780122295C1CE001202070F7
:101300004B21C9002846FEF7EDFE20713C212846FE
:10131000FEF7E8FE0A21FEF7E5FE6171D3E7002142
:101320000122084600F044FC01220021022000F0C6
:101330003FFC01220021042000F03AFCE1798020EA
:10134000002904D02F4A39881288114314D02179FA
:101350000122695C0143062000F02AFC6079012229
:10136000285C01090901082000F022FC6079285C52
:101370000007010E01220BE001228021062000F06F
:1013800017FC01220021082000F012FC012200219C
:101390000A2000F00DFCE079002804D019493888B3
:1013A000098808430FD06079285C2072164821789C
:1013B0000078002909D0012817D0207A4108490077
:1013C000882001430CE02672F0E7217A012803D03F
:1013D000F72001408120F4E701200143772008E055
:1013E0000122082000F0E4FBF8BD217A0820014327
:1013F0007E200140F4E700000000002010270000DC
:10140000260000202800002031000020F0B587B021
:1014100014216846FEF783FE36484269012189059A
:101420000A43426142690A400592426949110A43EE
:10143000426142690A400592426949000A43426199
:1014400040690122084005900920B021C006FEF73E
:1014500082FF01277F02092000223946C006FEF7DD
:101460007AFF012280212448FEF775FFB020012475
:101470000090032609200194694603960294C00651
:10148000FEF7C0FE0F2000250090694601950294EA
:101490001948FEF7B7FE022002900920694600971E
:1014A00003950194C006FEF7ADFEA0020090134F15
:1014B0000920694601970295C006FEF7A3FE402069
:1014C00000906946019702950B48FEF79BFE80202D
:1014D000009001946946039602940748FEF792FE35
:1014E000002211460720FEF793FF0720FEF786FF34
:1014F00007B0F0BD001002400004004800002110B9
:1015000010B594B000240E940F941094119412947A
:101510001C2168461394FEF702FE1C2107A8FEF763
:10152000FEFD2B48294901601F2184604160046150
:1015300063214461C16080218161FFF75DFA002869
:1015400001D0FEF724FE012000030E900EA92048D2
:10155000FFF799FA002801D0FEF719FE1C48FFF7A3
:101560004CFC002801D0FEF712FE129412A9184874
:101570001394FFF71DFA002801D0FEF708FE602043
:101580000594019400900294039404940022694607
:1015900006940F48FFF7C9FB002801D0FEF7F7FDBE
:1015A00001200794400308940C9009940A940B942A
:1015B00007A90D940648FFF7CBF9002801D0FEF7E4
:1015C000E6FD0348FFF788FB14B010BD002C014076
:1015D0005C000020704700008307FF22DB0E9A406A
:1015E0008907090E994000280BDA0007000F083818
:1015F000830808489B001818C36993430B43C361D1
:101600007047830804489B001B18186890430843E0
:101610001860704700ED00E000E400E0704770479C
:10162000704710B5FEF7A4FE10BD000010B50022F3
:1016300080211548FEF78FFE00211448FFF722FC99
:1016400013490420087001204870124A00201070CD
:10165000114A134B1080114A10801E221A80124B1F
:10166000104A1A80FF22114B91321A80888000F0B4
:101670001AFA0F48FEF78CFDFEF76EFD00F01AFA1D
:1016800000F01FFA10BD0000000400485C000020BC
:1016900030000020000000201C0000202600002058
:1016A0000C000020B80B00000A00002020000020E1
:1016B0001027000030B591B030216846FEF72FFDAD
:1016C00000240120009001900E94000409900F94D2
:1016D000C0000D9402250A900C9408950B9468465E
:1016E000FEF772FF07200C900E9401210D950F94C8
:1016F0000CA8FEF791FE11B030BD00001348016840
:101700000122114301604168114A114041600168A2
:10171000104A114001600168012292049143016066
:1017200041683F22120491434160C16A09090901DD
:10173000C162016BFF22143291430163416B49087E
:1017400049004163002181607047000000100240A1
:101750000CB8FF08FFFFF6FE10B50248FFF70BFAC2
:1017600010BD00005C00002010B50248FFF703FA2E
:1017700010BD00005C000020F0B502681A4B1B4C45
:10178000984201D0A04203D17025AA434D682A4354
:10179000174D184E184F98420AD0A04208D0174C47
:1017A000A04205D0A84203D0B04201D0B84205D132
:1017B0001446032212029443CA6822438024A2439F
:1017C0004C69224302608A68C2620A688262984257
:1017D00005D0A84203D0B04201D0B84201D1096976
:1017E000016301214161F0BD002C01400004004073
:1017F00000400140004401400048014000200040FA
:1018000010B50123046A8B409C430462036A8A403A
:101810001343036210BD30B58468FF252D021B02FF
:101820001343AC430B432343836030BD8268702372
:101830009A430A4307210A4382607047F0B5026A5F
:10184000520852000262056A436882697024A2430A
:1018500092080C6892001443022295438A68164E3F
:101860002A43144DA84207D0B04205D0134FB842C6
:1018700002D0134FB84206D10827BA43CF681743A6
:10188000042297433A46A84207D0B04205D00B4DF8
:10189000A84202D00A4DA84206D103252D02AB432F
:1018A0004D691D438B692B434360846149684163E3
:1018B0000262F0BD002C01400040014000440140A4
:1018C0000048014070B5026A10239A430262056A1B
:1018D0004268836973242402A3430C6824021C43D6
:1018E00020239D438B681B012B43124DA84208D136
:1018F0001D46CB688026B5431B012B434025AB43D7
:1019000008E00D4DA84205D00C4DA84202D00C4D68
:10191000A84208D10325AD02AA434D69AD00154385
:101920008A6992002A434260846149688163036244
:1019300070BD0000002C0140004001400044014007
:101940000048014070B5026AFF2301339A430262E6
:10195000056A4368C2697024A24392080C68920029
:1019600014430122520295438A6812022A43124DFF
:10197000A84208D11546CA68C614B54312022A43C4
:101980000515AA4308E00D4DA84205D00C4DA8420C
:1019900002D00C4DA84208D103252D03AB434D695D
:1019A0002D011D438B691B012B434360C4614968B2
:1019B000C163026270BD0000002C01400040014084
:1019C000004401400048014030B5026A01231B0376
:1019D0009A430262046A4268C36973252D02AB43CD
:1019E0000D682D021D4301235B039C438B681B0381
:1019F00023430C4CA04208D00B4CA04205D00B4C0A
:101A0000A04202D00A4CA04205D10124A403A24363
:101A10004C69A40122434260C561496801640362C4
:101A200030BD0000002C0140004001400044014056
:101A30000048014030B5036A046A64086400046227
:101A40008469F025AC43120122430A24A3430B43CB
:101A50008261036230BD30B5036A1024A343036280
:101A60008469036A0F252D031203AC432243A0248B
:101A7000A343090119438261016230BD02E008C835
:101A8000121F08C1002AFAD170477047002001E0F8
:101A900001C1121F002AFBD170476420401E0006BE
:101AA000000EFBD1704710B53C22FF21002000F052
:101AB0007FF810BD10B500213222084600F078F8FA
:101AC00010BD10B50924E406012210212046FEF7BE
:101AD00042FC012220212046FEF73DFC012280210C
:101AE0002046FEF738FCFF20F530FFF7D6FF002236
:101AF00010212046FEF72FFC0A20FFF7CEFF002022
:101B000000F002F9012000F09DF8032000F09AF89F
:101B1000042000F097F8052000F094F8082000F069
:101B200091F8182000F08EF8292000F08BF8802022
:101B300000F088F8402000F085F8E32000F082F8FB
:101B4000012210212046FEF706FC10BDFEF718FC0E
:101B5000FFF7B0FDFFF75AFCFFF7D2FC1048FEF785
:101B600087FFFFF763FD00210D48FFF763F90D4C78
:101B700000250D4E0A4F65803088032808D0658007
:101B8000396860884863FFF75BFBFFF73FFAF3E7CC
:101B9000064814210088FEF7A5FA6080F0E70000EF
:101BA0005C000020380000201E0000200A000020F9
:101BB000F7B50926154607460024F60622461021E9
:101BC0003046FEF7C8FB0A20FFF767FF012000F050
:101BD0009BF8384600F00EF804E0019800F06EF82B
:101BE000641CE4B2AC42F8D3012210213046FEF767
:101BF000B2FBFEBDF8B540060024050E06270926F7
:101C0000F606002220213046FEF7A5FB391B2846A8
:101C1000C840C00701D0012200E0002280213046E8
:101C2000FEF799FB0A20FFF738FF012220213046FA
:101C3000FEF791FB0A20FFF730FF641CE4B2062C8C
:101C4000DFD3F8BDF8B50024072709250646ED06C1
:101C5000002220212846FEF77EFB391B3046C84073
:101C6000C00701D0012200E0002280212846FEF7B3
:101C700072FB0A20FFF711FF012220212846FEF700
:101C80006AFB0A20FFF709FF641CE4B2082CDFD3CB
:101C9000002220212846FEF75EFB0A20FFF7FDFE0A
:101CA000002280212846FEF756FB012220212846EB
:101CB000FEF751FB0A20FFF7F0FEF8BDF8B500244F
:101CC000072709260546F606002220213046FEF7A2
:101CD00042FB391B2846C840C00701D0012200E062
:101CE000002280213046FEF736FB0A20FFF7D5FEA2
:101CF000012220213046FEF72EFB0A20FFF7CDFE01
:101D0000641C082CE0DBF8BD70B504460A20FFF720
:101D1000C4FE0925ED06002220212846FEF71BFB04
:101D20000A20FFF7BAFE012280212846FEF713FBA6
:101D3000012220212846FEF70EFB0A20FFF7ADFE08
:101D4000002220212846FEF706FB0A20FFF7A5FE09
:101D5000002280212846FEF7FEFA0A20FFF79DFEAA
:101D6000012220212846FEF7F6FA0A20FFF795FE09
:101D7000002220212846FEF7EEFA0A20FFF78DFE0A
:101D8000002C10D0012280212846FEF7E4FA0A2018
:101D9000FFF783FE012220212846FEF7DCFA0A2005
:101DA000FFF77BFE70BD0022EDE7000000000000A1
:101DB000000001020304060708090000DC1D0008FA
:101DC000000000205C0000007C1A0008381E00089B
:101DD0005C000020440400008C1A00080000000091
:101DE000000000000000000000005F063D2F666B51
:101DF0007B0E7F6F0000000000000000000000006C
:101E000000000000000000000000000000000000D2
:101E100000000000000000000000000078563412AE
:101E200000E00708000000000000000000000000C3
:081E30000000000000127A001E
:04000005080000B53A
:00000001FF
