:020000040800F2
:1000000080050020450100086F1B00081119000839
:100010006D1B0008B1010008C71E000800000000A9
:10002000000000000000000000000000751B000838
:10003000B301000800000000711B0008771B0008D6
:100040005F0100085F0100085F0100085F01000810
:100050005F010008731B00085F0100085F010008D2
:100060005F0100085F0100085F0100085F010008F0
:100070005F0100085F0100085F0100085F010008E0
:100080005F0100085F0100085F0100085F010008D0
:100090005F0100085F0100085F010008EB01000834
:1000A0005F0100080D1C00085F0100085F010008E7
:1000B000191C0008251C00085F0100085F010008EA
:1000C0005F0100085F0100085F0100085F01000890
:1000D0005F0100085F0100085F0100085F01000880
:1000E000B50100085F0100085F0100085F0100081A
:1000F0005F0100085F0100085F0100085F01000860
:100100005F0100085F0100085F0100085F0100084F
:100110005F0100085F0100085F0100085F0100083F
:100120005F0100085F0100085F0100085F0100082F
:10013000DFF80CD000F02AF800480047AD1F000897
:10014000800500200648804706480047FEE7FEE796
:10015000FEE7FEE7FEE7FEE7FEE7FEE7FEE7FEE777
:10016000C51B000831010008D2B201E000F8012BE4
:10017000491EFBD270470022F6E710B513460A4627
:1001800004461946FFF7F0FF204610BD064C074D08
:1001900006E0E06840F0010394E807009847103457
:1001A000AC42F6D3FFF7C8FF3C2200085C220008EF
:1001B000FEE7704710B54FF4806000F087FC4FF405
:1001C000006000F083FC4FF4805000F07FFC4FF49F
:1001D000005000F07BFC4FF4804000F077FCBDE85D
:1001E00010404FF4004000F071BC10B5402000F00A
:1001F0006DFC802000F06AFC4FF4807000F066FC1B
:10020000BDE810404FF4007000F060BC7047000083
:1002100070B5044600F06CFD0546601C02D0044831
:100220000078044400F064FD401BA042FAD370BD86
:10023000AC0000202DE9F05FF74D0024402829D0C4
:10024000802850D0B0F5807F73D0B0F5007F6FD09C
:10025000DFF8C8A3DFF8C8B3DFF8C893DFF8C883B6
:10026000F24D0A270126B0F5806F7DD0B0F5005F12
:100270007BD0B503EE4FA84278D11420FFF7C8FF1A
:100280002946384600F02AFD002801D1E9480681B8
:10029000BDE8F09FE74EB089401C80B2B0810328D2
:1002A000F6D900F025FD716B884204D0421AE2496C
:1002B000B1FBF2F13183716A012900D081B9F17883
:1002C00009B1318B09E0DD49328B09888A4201D9B5
:1002D000531A00E08B1A962B01DA298000E02A805D
:1002E0007063B481D4E7D34EF089401C80B2F081B2
:1002F0000328CDD900F0FCFCB16B421ACE49B1FB0A
:10030000F2F189B27183726A022A0DD1327952B93F
:10031000CB4A1288914201D98B1A00E0531A962BCE
:1003200001DA2A8000E02980B063F481B0E700E0C0
:1003300028E0C04E308A401C80B230820328A7D902
:1003400000F0D6FCF16B421ABB49B1FBF2F189B265
:10035000B183726A032A12D172797AB9B94A1288C2
:10036000914206D9738B02E030E0BBE16DE39B1A4A
:1003700000E0531A962B01DA2A8000E02980F0630E
:10038000348285E7AB4E708A401C80B270820328AD
:10039000A8D900F0ADFC316C421AA749B1FBF2F1CB
:1003A00089B2F183726A042A0DD1B27952B9A64A90
:1003B0001288914201D98B1A00E0531A962B01DA68
:1003C0002A8000E029803064748261E79948818A3C
:1003D000491C89B2818206290BD900F089FC81B2BF
:1003E0009448026A8B1A944AB2FBF3F2C282016209
:1003F000848290480078012860D1C102934800F0BF
:100400006DFC1E2201288B484FF4967140F2DC539C
:1004100009D0B0F816C08C45B8F800C041462AD9BA
:10042000ACF1280C29E090F801C0BCF1000F45D1D7
:10043000B0F816C08C45B8F800C0414602D90CF19E
:10044000280C01E00CF1050CA8F800C01FFA8CFC88
:100450009C4501D90B8004E0BCF1C80F01D2C82330
:10046000F8E7436A012B12D0022B16D0032B1AD0C7
:10047000042B23D11DE0ACF1050CA8F800C01FFA35
:100480008CFC9C4500D90C8005234370E9E76B493F
:10049000B8F800300B80C27010E06949B8F800303D
:1004A0000B8002710AE06749B8F800300B80427196
:1004B00004E06549B8F800300B808271DFF8748180
:1004C00098F80000022824D18102604800F006FC60
:1004D0000128404608D0C16A491EC16201D53B21AE
:1004E000C1620521417008E041780029C16A01D14B
:1004F000491CC1623B2900DDC462D8F82C0090FB86
:10050000F7F1AAF8001090FBF7F107FB1100ABF828
:10051000000098F80000032820D14FF400614B48F8
:1005200000F0DCFB0128404639D0016B4FF005029A
:10053000491E0163427002D53C2101632C700846BC
:1005400091FBF7F1A9F8001090FBF7F107FB110000
:100550003F49088098F80000032804D098F800006C
:1005600002287FF4BFAED8F824104046012927D0D6
:10057000022941D0032979D00429F2D1297801290F
:10058000016B74D0C26AC1EB011102EB8101314AE7
:1005900001651470C8F860102F48047078E641783F
:1005A0000029016B01D1491C01633C2901DD2E703A
:1005B0000463D8F8300090FBF7F2A9F80020C3E7F5
:1005C00029780129016B0BD0C26AC1EB011102EB42
:1005D0008101224A416414702148C8F85410DCE7B4
:1005E0004FF461625143C26AC2EB021201EB820115
:1005F0001A4A41641670EFE729780129016B37D058
:10060000C26AC1EB011102EB8101164A81641470C8
:100610001548C8F85810C0E7A0000020A800002026
:10062000AA000020A4000020A2000020000000205A
:100630000014014034000020C0D4010098000020C4
:100640009C0000209A0000209E000020001801401D
:10065000A600002004000020080000200100002067
:100660000500002002000020060000200CE02AE027
:100670004FF461625143C26AC2EB021201EB820184
:10068000FE4A81641670C3E729780129016B0BD0FB
:10069000C26AC1EB011102EB8101F94AC164147015
:1006A000C8F85C10F74878E74FF461625143C26ABA
:1006B000C2EB021201EB8201C164F1490E70816C40
:1006C000C8F85810EEE74FF461625143C26AC2EBBA
:1006D000021201EB82010165EB490E70816CC8F8D2
:1006E000581059E74FF48051E84800F0F7FA58B92C
:1006F000E748417841B9416A491C41628770042941
:1007000000DD4662416A8162E14848F6A0424FF44A
:10071000616E416A4FF4167C012906D0022965D02A
:1007200003297DD004297CD12EE1DA4909780129F9
:10073000416D2ED0B1FBFCF2A9F800203C22B1FBA8
:10074000F2F3B3FBF7FC07FB1C3CD34BA3F800C050
:10075000B1FBF2F302FB1313B3FBF7FCB1FBF2F3B3
:1007600002FB1313AAF800C0B3FBF7FC07FB1C370E
:10077000ABF80070B1FBF2F32C70B1FBFEF402FB9E
:1007800013130EFB1411B1FBF2F1C3620163C349F1
:1007900062E0B1FBF2F2A9F800207246B1FBF2F37D
:1007A000B3FBF7F407FB1434BB4B1C80B1FBF2F333
:1007B0000EFB1314B4FBFCF4B1FBF2F3AAF80040F7
:1007C0000EFB13143C23B4FBF3F4B4FBF7FC07FB60
:1007D0001C47B1FBF2F402FB1414B4FBF3F3B1FBBE
:1007E000FEF1ABF800702E70C362CFE7A349097821
:1007F00001293AD0826DB2FBFCF1A9F800103C212E
:10080000B2FBF1F3B3FBF7FC07FB1C3CA24BA3F8D4
:1008100000C0B2FBF1F301FB1323B3FBF7FC01E0D3
:1008200051E01CE0B2FBF1F301FB1323AAF800C076
:10083000B3FBF7FC07FB1C37ABF80070B2FBF1F31E
:100840002C70B2FBFEF401FB13230EFB1422B2FB4F
:10085000F1F1C362016392490A88A8F80020017887
:1008600000293FF43FAD067012E5816DB1FBF2F255
:10087000A9F800207246B1FBF2F3B3FBF7F407FBD3
:100880001434854B1C80B1FBF2F30EFB1314B4FB44
:10089000FCF4B1FBF2F3AAF800400EFB13143C2366
:1008A000B4FBF3F4B4FBF7FC07FB1C47B1FBF2F419
:1008B00002FB1414B4FBF3F3B1FBFEF1ABF80070D0
:1008C0002E70C362C6E76E4909780129C16D2ED02A
:1008D000B1FBFCF2A9F800203C22B1FBF2F3B3FB20
:1008E000F7FC07FB1C3C6C4BA3F800C0B1FBF2F318
:1008F00002FB1313B3FBF7FCB1FBF2F302FB131380
:10090000AAF800C0B3FBF7FC07FB1C37ABF800707C
:10091000B1FBF2F32C70B1FBFEF402FB13130EFBE0
:100920001411B1FBF2F1C36201635E4994E7B1FBBC
:10093000F2F2A9F800207246B1FBF2F3B3FBF7F430
:1009400007FB1434544B1C80B1FBF2F30EFB131461
:10095000B4FBFCF4B1FBF2F3AAF800400EFB131455
:100960003C23B4FBF3F4B4FBF7FC07FB1C47B1FBDF
:10097000F2F402FB1414B4FBF3F3B1FBFEF1ABF899
:1009800000702E70C362CFE73F4909780129016EDC
:100990002ED0B1FBFCF2A9F800203C22B1FBF2F30F
:1009A000B3FBF7FC07FB1C3C3B4BA3F800C0B1FBBF
:1009B000F2F302FB1313B3FBF7FCB1FBF2F302FB00
:1009C0001313AAF800C0B3FBF7FC07FB1C37ABF806
:1009D0000070B1FBF2F32C70B1FBFEF402FB1313B9
:1009E0000EFB1411B1FBF2F1C36201632E4933E730
:1009F000B1FBF2F2A9F800207246B1FBF2F3B3FBAF
:100A0000F7F407FB1434244B1C80B1FBF2F30EFB0C
:100A10001314B4FBFCF4B1FBF2F3AAF800400EFB94
:100A200013143C23B4FBF3F4B4FBF7FC07FB1C47A3
:100A3000B1FBF2F402FB1414B4FBF3F3B1FBFEF1CF
:100A4000ABF800702E70C362CFE74FF40045A842A8
:100A50007FF448AC1420FFF7DBFB2946384600F052
:100A60003DF90028F4D10A48416A31B10F490A889A
:100A7000012A1DD0032A1DD01EE024E00200002020
:100A8000030000200700002004000020001801409F
:100A90003400002001000020A60000209800002063
:100AA0009C0000209A0000209E0000200A000020E8
:100AB000022200E004220A800178491CC9B20170B8
:100AC000032900D9047046810CE40000044910B5E4
:100AD0000A68024202D00860FFF7ACFB10BD0000BC
:100AE000140401402DE9F84FDFF8C891002409F102
:100AF000040A0AF1040B23460F270BF1040ED1E080
:100B00000125A54006EA0502AA4276D1DFF8A8C170
:100B10004E68A6EB0C0866452BD00DDC032E34D0B6
:100B200005DC36B3012E19D0022E2FD11BE0112E79
:100B300016D0122E2AD119E0B8F5881F19D006DC7C
:100B4000B8F5803F15D0B8F5801F1FD111E0B8F57A
:100B5000001F0ED0B8F5041F18D10AE0CB6815E0CD
:100B6000CB681B1D12E0CB6808330FE0CB680C3359
:100B70000CE08B682BB1012B4FF0080303D04561CB
:100B800004E0042302E0056100E00023FF2A01D80D
:100B9000064601E000F104064FEA840501D9A5F1FB
:100BA0002005D6F8008007FA05FC28EA0C0803FAAD
:100BB00005F548EA0508C6F800804D68ED0070D5D7
:100BC0003E4DAE6946F00106AE61AD6924F0030604
:100BD00005F0010500953A4D06EB050CDCF80850D0
:100BE000A607360F07FA06F825EA0805DFF8D480CD
:100BF000404503D14FF0000825E052E0DFF8C880FF
:100C0000404502D14FF001081DE0DFF8C0804045AB
:100C100002D14FF0020816E0DFF8B480404502D15F
:100C20004FF003080FE0DFF8AC80404502D14FF0F1
:100C3000040808E0DFF8A080404502D14FF0050825
:100C400001E04FF0060808FA06F848EA0508CCF873
:100C500008804D68D9F80060ED034D4601D5164374
:100C600000E096432E604D68DAF80060AD0355460B
:100C700001D5164300E096432E604D68DBF8006016
:100C8000ED025D4601D5164300E096432E604D68A7
:100C9000DEF80060AD02754601D5164300E09643CC
:100CA0002E60641C0A681646E2407FF429AFBDE856
:100CB000F88F0000000401400000111000100240F5
:100CC0000000014000080140000C014000100140FC
:100CD0000014014000180140001C014080680840D9
:100CE00000D0012070470AB1016170470904FBE799
:100CF0000148806870470000AC000020024881680D
:100D00000278114481607047AC000020074810B59C
:100D1000016841F010010160032000F07DF800201F
:100D200000F006F800F024F8002010BD002002407A
:100D300070B50D4D04464FF47A712878B1FBF0F090
:100D40000A490968B1FBF0F000F0D4FA48B9102C58
:100D500007D200222146501E00F03EF800206C60B1
:100D600070BD012070BD0000AC000020B800002064
:100D7000104808B5816941F001018161816901F084
:100D800001010091C16941F08051C161C069002237
:100D900000F0805000901146052000F01DF805205D
:100DA00000F00CF80448416821F0E06141F08061F6
:100DB000416008BD0010024000000140002809DB2E
:100DC00000F01F02012191404009800000F1E02065
:100DD000C0F8001170470000F0B40E4B1B680C46C1
:100DE000C3F30223C3F10705042D00D90425191DFF
:100DF000072901D2002300E0DB1E012606FA05F1D7
:100E0000491E214099409E40761E16403143F0BC59
:100E100001F05AB80CED00E0064900F0070208683E
:100E20004FF6FF03184040EA0220034A10430860CF
:100E3000704700000CED00E00000FA052DE9F047D6
:100E40000F46050061D0434E306800F00700B842FD
:100E500009D2306820F0070038433060306800F075
:100E60000700B84251D128683B4C810712D5400792
:100E700003D5606840F4E06060602878000703D51F
:100E8000606840F4605060606068A96820F0F0001D
:100E9000084360602878C00728D06868012810D00F
:100EA0002168022810D0890700292EDA616821F014
:100EB000030101436160FFF71BFF804641F288395F
:100EC0000DE021688903EFE78901EDE7FFF710FFE7
:100ED000A0EB0801494502D90320BDE8F08760680E
:100EE000696800F00C00B0EB810FEFD1306800F0C2
:100EF0000700B8420BD9306820F007003843306053
:100F0000306800F00700B84201D00120E5E72878FA
:100F1000400705D56068E96820F4E0600843606038
:100F20002878000706D56068296920F4605040EAF7
:100F3000C100606000F018F86168084AC1F303114D
:100F4000515CC8400649086006480068FFF7F0FE9B
:100F50000020C2E700200240001002402C220008BE
:100F6000B8000020B000002012A185B00FC98DE8A4
:100F70000F0014A0144A006804905168134801F04F
:100F80000C03042B10D0082B0ED1C1F38343C903EB
:100F90001DF803000AD5516804AAC1F34041515C11
:100FA0000A4A5043B0FBF1F005B070470849484386
:100FB000FAE7000002030405060708090A0B0C0DF6
:100FC0000E0F1010010200000010024000127A0003
:100FD00000093D002DE9F84F040070D02078C04D85
:100FE000C00749D06868C0F38100012807D068684D
:100FF000C0F38100022809D16868C00306D52868BB
:10100000800339D560680028E7D035E06068B0F526
:10101000803F0BD010B1B0F5A02F11D0286820F47C
:1010200080302860286820F4802002E0286840F49E
:1010300080302860606890B1FFF75AFE06460AE0EB
:10104000286840F480202860F0E700BFFFF750FEDA
:10105000801B642873D828688003F7D50CE0FFF75D
:1010600047FE064605E000BFFFF742FE801B6428EE
:10107000F0D828688003F7D420789A4E80074FF084
:1010800001094FF0000839D5686810F00C0F07D03F
:101090006868C0F38100022809D16868C00306D4DB
:1010A0002868800714D52069012808D110E020693C
:1010B000B0B1C6F80090FFF71BFE074605E00AE155
:1010C000FFF716FEC01B0228C4D828688007F7D592
:1010D0002868616920F0F80040EAC10028600DE04E
:1010E000C6F80080FFF704FE074604E0FFF700FEA5
:1010F000C01B022823D828688007F7D4207800076F
:101100002CD57948A169D9B1C0F80090FFF7F0FD5E
:10111000074604E0FFF7ECFDC01B02280FD8686A01
:101120008007F7D571484FF4FA510068B0FBF1F031
:10113000009000BF0098411E0091FAD20EE080E0BE
:10114000C0F80080FFF7D4FD074604E0FFF7D0FDAC
:10115000C01B022875D8686A8007F7D4207840073A
:1011600060D5E8690027C00008D4E86940F08050E5
:10117000E861E869012700F0805000905C48016850
:10118000C90513D40168834641F480710160FFF7FB
:10119000AFFD824606E000BFFFF7AAFDA0EB0A0004
:1011A00064284ED8DBF80000C005F5D5E0680128BA
:1011B0000AD008B1052813D0286A20F0010028625F
:1011C000286A20F0040002E0286A40F0010028624A
:1011D000E06841F2883B98B1FFF78AFD82460BE058
:1011E000286A40F004002862EEE700BFFFF780FDA8
:1011F000A0EB0A0159455AD8286A8007F6D50CE0B9
:10120000FFF776FD824605E0FFF772FDA0EB0A01CD
:1012100059454CD8286A8007F6D41FB1E86920F0F8
:101220008050E861E06988B36968C1F381010229EF
:1012300044D00228C6F8608004D0FFF759FD044668
:1012400038E034E0FFF754FD074604E0FFF750FDB7
:10125000C01B02282BD828688001F7D4206AB0F57B
:10126000803F05D16868A16820F4003008436860B9
:10127000D4E908010843696821F4741108436860DF
:10128000C6F86090FFF734FD044606E025E000BF95
:10129000FFF72EFD001B022809D828688001F7D52A
:1012A0001BE000BFFFF724FD001B022802D903202A
:1012B000BDE8F88F28688001F4D40EE00128F7D04B
:1012C0006868226A00F48031914204D1616A00F4B6
:1012D0007010884201D00120EAE70020E8E7000012
:1012E000001002400000424280044242B800002048
:1012F0000070004010B5401EB0F1807F01D3012086
:1013000010BD4FF0E02460610F21601700F0DCFD9C
:101310000020A06107202061002010BD70477047A9
:1013200010B590F83C20012A22D0012280F83C2000
:10133000CA688C6822F4407222434C6822F48062AE
:1013400022430C6822F4006222430C6922F480528A
:1013500022434C6922F400522243C969002322F43B
:1013600080420A4301684A6480F83C30002010BD86
:10137000022010BD70B590F83C20012A19D001243C
:1013800000F83C4F0222427050F83C3C5A689D687D
:1013900022F070060A684968324325F08005294327
:1013A0005A6050F83C2C916044700021017008464E
:1013B00070BD022070BD10B5040003D094F83D004C
:1013C00010B107E0012010BD002084F83C00204649
:1013D00000F00CF8022084F83D00211D206800F088
:1013E00027FC012084F83D00002010BD08B51E4AEE
:1013F00001681E4891420ED1816941F4006181610A
:101400008069002200F40060009011461920FFF767
:10141000E3FC192013E0B1F1804F14D0144A91423B
:1014200020D1C16941F00201C161C069002200F010
:101430000200009001211D20FFF7CEFC1D20BDE819
:101440000840FFF7BBBCC16941F00101C161C0693F
:10145000002200F00100009011461C20FFF7BCFCA8
:101460001C20ECE708BD0000002C014000100240E9
:10147000000400400168CA6842F00102CA600068C6
:10148000816801F00701062903D0016841F00101DC
:1014900001600020704770B5044690F83C000128B8
:1014A00017D0012584F83C50022084F83D002068C4
:1014B000826822F0770222F47F4282600868502816
:1014C00030D00DDC20284DD005DC98B310283BD15E
:1014D00048E0022070BD302844D0402834D139E0A3
:1014E000602828D0702806D0B0F5805F2CD0B0F5E9
:1014F000005F29D10AE0CB68D1E90121206800F022
:10150000EAFB2068816841F0770109E0CB68D1E906
:101510000121206800F0DFFB2068816841F48041F0
:10152000816011E0CA684968206800F0A9FC502178
:10153000206807E016E0CA684968206800F0B1FC3E
:101540006021206800F0D1FB84F83D50002084F831
:101550003C0070BDCA684968206800F091FC4021D9
:101560002068EFE7226801461046EBE7704770B548
:101570000446006801694FF00005C943890715D486
:10158000C168C943890711D4E91E01610120207790
:10159000206880698007204602D0FFF7E7FF04E05B
:1015A00000F00CF9204600F08EF9257720680169DB
:1015B000C943490717D4C168C943490713D46FF019
:1015C00004010161022020772068806910F4407FC7
:1015D000204602D0FFF7CAFF04E000F0EFF82046F3
:1015E00000F071F9257720680169C943090716D40D
:1015F000C168C943090712D46FF0080101610420D2
:1016000020772068C0698007204602D0FFF7AEFF30
:1016100004E000F0D3F8204600F055F92577206863
:101620000169C943C90617D4C168C943C90613D49F
:101630006FF010010161082020772068C06910F464
:10164000407F204602D0FFF791FF04E000F0B6F89B
:10165000204600F038F9257720680169C943C90799
:1016600008D1C168C943C90704D1891E0161204658
:1016700000F04CF920680169C943090609D4C16822
:10168000C943090605D46FF0800101612046FFF7C8
:1016900045FE20680169C943490609D4C168C943A8
:1016A000490605D46FF040010161204600F02FF992
:1016B00020680169C94389060BD4C168C9438906FA
:1016C00007D46FF0200101612046BDE87040FFF7AC
:1016D00026BE70BD30B585B0002100910191029108
:1016E000039102682E482F49022482421AD1886948
:1016F00040F0400088618869694600F0400004902D
:101700006003CDE9000428480394FFF7EBF927486C
:10171000416821F0C00141F0E06141F0C001416049
:1017200005B030BD01252248B2F1804F2BD0214BAE
:101730009A42F5D18A6942F004028A618A6902F00C
:10174000040204928A6942F008028A61896903945A
:1017500001F008010491C021CDE900146946FFF7AA
:10176000C1F9CDE900540320134D03906946284682
:10177000FFF7B8F90094019469462846CDF80C406B
:10178000FFF7B0F9CCE78A6942F004028A618969FF
:10179000CDE9005401F00401CDE903416946EFE7CA
:1017A000002C0140001002400018014000000140E0
:1017B0000008014000040040000C0140704770B573
:1017C000044690F83C000D4601280DD0012684F80F
:1017D0003C60022084F83D0042B1042A18D0082A57
:1017E0002AD00C2A4DD139E0022070BD206800F0CB
:1017F00085FA2068816941F008018161206881696A
:1018000021F004018161206881692A69114311E096
:10181000206800F0A3FA2068816941F400618161C9
:101820002068816921F480618161206881692A6969
:1018300041EA0221816124E0206800F0C5FA2068B5
:10184000C16941F00801C1612068C16921F004014A
:10185000C1612068C1692A69114311E0206800F064
:10186000E7FA2068C16941F40061C1612068C1697B
:1018700021F48061C1612068C1692A6941EA0221BD
:10188000C16184F83D60002084F83C0070BD10B553
:10189000040003D094F83D0010B107E0012010BD12
:1018A000002084F83C00204600F00CF8022084F868
:1018B0003D00211D206800F0BBF9012084F83D00A7
:1018C000002010BD7047704710B504460068012223
:1018D00000F0F4F90B492068884202D00A49884296
:1018E00003D1416C41F4004141642068816801F0FA
:1018F0000701062903D0016841F0010101600020C1
:1019000010BD0000002C01400034014070477047BA
:10191000FEE70000054B30B1012806D1012240212D
:101920001846FFF7E0B90022F9E7704700100140C0
:101930002DE9F04F85B00026544800960196029696
:101940000396816941F010018161816901F0100104
:101950000491816941F004018161816901F0040110
:101960000491816941F008018161816901F00801F8
:101970000491816941F040018161816901F0400178
:101980000491816941F0200181618069DFF800B133
:1019900000F020000490002254215846FFF7A3F9DC
:1019A000DFF8F0A0002280215046FFF79CF94FF4A9
:1019B0003049012249463848FFF795F900220221B3
:1019C0003648FFF790F914200124022503278DE8FB
:1019D000B10069465846FFF785F880208DE8B100D0
:1019E00069465046FFF77EF8DFF8B4804FF40C40AC
:1019F000CDE90008694602965046FFF773F83803B0
:101A0000CDE90008694602945046FFF76BF8CDE92E
:101A10000094CDE9024769461F48FFF763F8DFF8F5
:101A20008480B803CDE90008694602961B48FFF799
:101A300059F840208DE83100694658460395FFF774
:101A400051F8CDE90054CDE9025769461348FFF734
:101A500049F84FF47070CDE90008694602940E48C9
:101A6000FFF740F8002203211720FFF7B5F91720F0
:101A7000FFF7A4F9002202212820FFF7ADF9282062
:101A8000FFF79CF905B0BDE8F08F000000100240A0
:101A90000010014000180140000C014000140140FA
:101AA000000011100000211010B596B000240F9412
:101AB00010941194129413941C2108A81494FEF706
:101AC0005AFB20216846FEF756FB2748254901604E
:101AD0002321C0E901140921C0E903144461846190
:101AE000FFF769FC08B1FEF791FB4FF480500F90AF
:101AF0000FA91D48FFF7CFFC08B1FEF787FB1A4876
:101B0000FFF7C5FE08B1FEF781FB139413A9164831
:101B10001494FFF72FFC08B1FEF778FB6020CDE9A5
:101B200008040A940C940D940C2208A90E480E94F3
:101B3000FFF745FE08B1FEF769FB00944FF4005033
:101B4000CDE9044002940194039469460648079441
:101B5000FFF7E6FB08B1FEF759FB0348FFF7BAFDB4
:101B600016B010BD002C0140BC000020FEE77047FD
:101B7000704770477047FFF7C1B830B58FB0282164
:101B80006846FEF7F8FA14210AA8FEF7F4FA0121D4
:101B90000804CDE900100024029402250491CDE947
:101BA0000750C00009906846FFF714FA0F200A900A
:101BB000CDE90B540D9401210AA80E94FFF73EF9CC
:101BC0000FB030BD0D48016841F00101016041686E
:101BD0000B4A1140416001680A4A114001600168E6
:101BE00021F480210160416821F4FE0141604FF43D
:101BF0001F0181600449C003086070470010024063
:101C00000000FFF8FFFFF6FE08ED00E00148FFF7D7
:101C1000AEBC0000BC0000200148FFF7A8BC0000DB
:101C2000FC0000200148FFF7A2BC00003C0100209E
:101C3000F0B502681C4B1D4D1D4E1E4F1E4C4FF043
:101C4000804C984209D0A04207D0604505D0A842F8
:101C500003D0B04201D0B84204D122F0700E4A68DD
:101C600042EA0E02984209D0A04207D0604505D052
:101C7000A84203D0B04201D0B84203D122F440754B
:101C8000CA682A434D6922F080022A4302608A68AA
:101C9000C2620A688262984201D0A04201D10969F9
:101CA000016301214161F0BD002C014000040040AE
:101CB00000080040000C00400034014010B501F065
:101CC0001F030121046A99408C430462016A9A400F
:101CD0001143016210BD10B5846842EA032224F466
:101CE0007F440A432243826010BD826822F0700262
:101CF0000A4342F00701816070470000F0B5026AB4
:101D000022F001020262036A42688469124E24F0E2
:101D100073050C682C4323F002058B682B430D4D93
:101D2000A84201D0B04205D123F00807CB683B435D
:101D300023F00403A84201D0B04205D14D6922F43A
:101D4000407215438A692A4342608461496841634D
:101D50000362F0BD002C014000340140F0B5026A7E
:101D600022F010020262026A436884690D6824F45A
:101D7000E64444EA05248D6822F0200242EA051276
:101D80000F4D104EA84201D0B04206D1CF6822F0CC
:101D9000800242EA071222F04002A84201D0B0427B
:101DA00007D14D6923F4406343EA85038D6943EA13
:101DB000850343608461496881630262F0BD00006D
:101DC000002C014000340140F0B5026A22F4807218
:101DD0000262026A4368C46922F4007224F0730547
:101DE0000C68124E2C438D6842EA05220E4DA84223
:101DF00001D0B04206D1CF6822F4006242EA072245
:101E000022F48062A84201D0B04207D14D6923F488
:101E1000405343EA05138D6943EA05134360C461E7
:101E20004968C1630262F0BD002C014000340140EA
:101E300030B5026A22F480520262046A4268C369C1
:101E40000D6823F4E64343EA05238D6824F4005427
:101E500044EA0534084DA84202D0084DA84204D1F6
:101E60004D6922F4804242EA85124260C3614968AA
:101E70000164046230BD0000002C014000340140C8
:101E800010B5036A046A24F001040462846924F032
:101E9000F00444EA021423F00A020A438461026255
:101EA00010BD10B5036A23F0100303628369046A4E
:101EB00023F4704343EA023224F0A00343EA011101
:101EC0008261016210BDFEE70907090E002804DBEC
:101ED00000F1E02080F80014704700F00F0000F1DE
:101EE000E02080F8141D704702E008C8121F08C1E6
:101EF000002AFAD170477047002001E001C1121F8B
:101F0000002AFBD170476420401E10F0FF00FBD177
:101F100070473222FF21002000F066B870B5012220
:101F2000214D140321462846FEF7DDFE0122510310
:101F30002846FEF7D8FE0122D1032846FEF7D3FE3D
:101F40004FF4FA70FFF7DFFF002221462846FEF724
:101F5000CAFE0A20FFF7D7FF002000F011F9012088
:101F600000F09CF8032000F099F8042000F096F8A7
:101F7000052000F093F8082000F090F8182000F0F9
:101F80008DF8292000F08AF8802000F087F84020A2
:101F900000F084F8E32000F081F821462846BDE8EF
:101FA00070400122FEF79FBE000C0140FEF7AEFE1E
:101FB000FFF7E3FDFFF7BCFCFFF776FD0C210948B6
:101FC000FFF782FC0748FFF755FAFFF7A7FF00204D
:101FD000FFF7A0FCFFF79DFF4FF47A70FEF718F9AA
:101FE000FEE70000BC0000202DE9F047DFF8488044
:101FF00015468946074600244FF48056224631464E
:102000004046FEF770FE0A20FFF77DFF012000F03A
:10201000B7F8384600F012F804E0484600F082F8BD
:10202000641CE4B2AC42F8D331464046BDE8F04708
:102030000122FEF758BE0000000C01402DE9F041DE
:1020400000244006144F050E4FF400484FF400568C
:10205000002231463846FEF746FEC4F1070025FA55
:1020600000F0C00701D0012200E0002241463846BE
:10207000FEF739FE0A20FFF746FF012231463846B7
:10208000FEF731FE0A20FFF73EFF641CE4B2072C86
:10209000DED3BDE8F0810000000C01402DE9F041E5
:1020A0001F4E074600244FF400484FF4005500220D
:1020B00029463046FEF717FEC4F1070027FA00F064
:1020C000C00701D0012200E0002241463046FEF761
:1020D0000AFE0A20FFF717FF012229463046FEF7C5
:1020E00002FE0A20FFF70FFF641CE4B2082CDED3C7
:1020F000002229463046FEF7F6FD0A20FFF703FFCF
:10210000002241463046FEF7EEFD012229463046C8
:10211000FEF7E9FDBDE8F0410A20FFF7F4BE00003C
:10212000000C01402DE9F041144F054600244FF406
:1021300000484FF40056002231463846FEF7D3FDE2
:10214000C4F1070025FA00F0C00701D0012200E029
:10215000002241463846FEF7C6FD0A20FFF7D3FEAF
:10216000012231463846FEF7BEFD0A20FFF7CBFEBE
:10217000641C082CDFDBBDE8F0810000000C01408E
:102180002DE9F04107460A20FFF7BDFE264E4FF429
:102190000055002229463046FEF7A5FD0A20FFF72C
:1021A000B2FE0122D40321463046FEF79CFD0122F7
:1021B00029463046FEF797FD0A20FFF7A4FE0022CD
:1021C00029463046FEF78FFD0A20FFF79CFE0022CD
:1021D00021463046FEF787FD0A20FFF794FE0122D4
:1021E00029463046FEF77FFD0A20FFF78CFE0022CD
:1021F00029463046FEF777FD0A20FFF784FE8FB1AF
:10220000012221463046FEF76EFD0A20FFF77BFED5
:10221000012229463046FEF766FDBDE8F0410A205E
:10222000FFF771BE0022ECE7000C01400000000047
:102230000000000001020304060708095C220008F0
:1022400000000020BC000000E81E00081823000861
:10225000BC000020C4040000F81E000800000000BC
:10226000000000000000000000000000000000006E
:10227000000000000000000000000000000000005E
:10228000000000000000000000000000000000004E
:10229000000000000000000000000000000000003E
:1022A000000000000000000000000000000000002E
:1022B000000000000000000000000000000000001E
:1022C000000000000000000000000000000000000E
:1022D00000000000000000000000000000000000FE
:1022E00000000000000000000000000000000000EE
:1022F00000000000000000000000000000000000DE
:1023000000000000000000000100000010000000BC
:08231000000000000024F400AD
:0400000508000131BD
:00000001FF
